{
  "_format": "hh-sol-artifact-1",
  "contractName": "Domains",
  "sourceName": "contracts/Domains.sol",
  "abi": [
    {
      "inputs": [
        {
          "internalType": "string",
          "name": "_tld",
          "type": "string"
        }
      ],
      "stateMutability": "payable",
      "type": "constructor"
    },
    {
      "inputs": [],
      "name": "AlreadyRegistered",
      "type": "error"
    },
    {
      "inputs": [
        {
          "internalType": "string",
          "name": "name",
          "type": "string"
        }
      ],
      "name": "InvalidName",
      "type": "error"
    },
    {
      "inputs": [],
      "name": "Unauthorized",
      "type": "error"
    },
    {
      "anonymous": false,
      "inputs": [
        {
          "indexed": true,
          "internalType": "address",
          "name": "owner",
          "type": "address"
        },
        {
          "indexed": true,
          "internalType": "address",
          "name": "approved",
          "type": "address"
        },
        {
          "indexed": true,
          "internalType": "uint256",
          "name": "tokenId",
          "type": "uint256"
        }
      ],
      "name": "Approval",
      "type": "event"
    },
    {
      "anonymous": false,
      "inputs": [
        {
          "indexed": true,
          "internalType": "address",
          "name": "owner",
          "type": "address"
        },
        {
          "indexed": true,
          "internalType": "address",
          "name": "operator",
          "type": "address"
        },
        {
          "indexed": false,
          "internalType": "bool",
          "name": "approved",
          "type": "bool"
        }
      ],
      "name": "ApprovalForAll",
      "type": "event"
    },
    {
      "anonymous": false,
      "inputs": [
        {
          "indexed": true,
          "internalType": "address",
          "name": "from",
          "type": "address"
        },
        {
          "indexed": true,
          "internalType": "address",
          "name": "to",
          "type": "address"
        },
        {
          "indexed": true,
          "internalType": "uint256",
          "name": "tokenId",
          "type": "uint256"
        }
      ],
      "name": "Transfer",
      "type": "event"
    },
    {
      "inputs": [
        {
          "internalType": "address",
          "name": "to",
          "type": "address"
        },
        {
          "internalType": "uint256",
          "name": "tokenId",
          "type": "uint256"
        }
      ],
      "name": "approve",
      "outputs": [],
      "stateMutability": "nonpayable",
      "type": "function"
    },
    {
      "inputs": [
        {
          "internalType": "address",
          "name": "owner",
          "type": "address"
        }
      ],
      "name": "balanceOf",
      "outputs": [
        {
          "internalType": "uint256",
          "name": "",
          "type": "uint256"
        }
      ],
      "stateMutability": "view",
      "type": "function"
    },
    {
      "inputs": [
        {
          "internalType": "string",
          "name": "",
          "type": "string"
        }
      ],
      "name": "domains",
      "outputs": [
        {
          "internalType": "address",
          "name": "",
          "type": "address"
        }
      ],
      "stateMutability": "view",
      "type": "function"
    },
    {
      "inputs": [
        {
          "internalType": "string",
          "name": "name",
          "type": "string"
        }
      ],
      "name": "getAddress",
      "outputs": [
        {
          "internalType": "address",
          "name": "",
          "type": "address"
        }
      ],
      "stateMutability": "view",
      "type": "function"
    },
    {
      "inputs": [],
      "name": "getAllNames",
      "outputs": [
        {
          "internalType": "string[]",
          "name": "",
          "type": "string[]"
        }
      ],
      "stateMutability": "view",
      "type": "function"
    },
    {
      "inputs": [
        {
          "internalType": "uint256",
          "name": "tokenId",
          "type": "uint256"
        }
      ],
      "name": "getApproved",
      "outputs": [
        {
          "internalType": "address",
          "name": "",
          "type": "address"
        }
      ],
      "stateMutability": "view",
      "type": "function"
    },
    {
      "inputs": [
        {
          "internalType": "string",
          "name": "name",
          "type": "string"
        }
      ],
      "name": "getRecord",
      "outputs": [
        {
          "internalType": "string",
          "name": "",
          "type": "string"
        }
      ],
      "stateMutability": "view",
      "type": "function"
    },
    {
      "inputs": [
        {
          "internalType": "string",
          "name": "name",
          "type": "string"
        }
      ],
      "name": "getTwitter",
      "outputs": [
        {
          "internalType": "string",
          "name": "",
          "type": "string"
        }
      ],
      "stateMutability": "view",
      "type": "function"
    },
    {
      "inputs": [
        {
          "internalType": "address",
          "name": "owner",
          "type": "address"
        },
        {
          "internalType": "address",
          "name": "operator",
          "type": "address"
        }
      ],
      "name": "isApprovedForAll",
      "outputs": [
        {
          "internalType": "bool",
          "name": "",
          "type": "bool"
        }
      ],
      "stateMutability": "view",
      "type": "function"
    },
    {
      "inputs": [],
      "name": "isOwner",
      "outputs": [
        {
          "internalType": "bool",
          "name": "",
          "type": "bool"
        }
      ],
      "stateMutability": "view",
      "type": "function"
    },
    {
      "inputs": [],
      "name": "name",
      "outputs": [
        {
          "internalType": "string",
          "name": "",
          "type": "string"
        }
      ],
      "stateMutability": "view",
      "type": "function"
    },
    {
      "inputs": [
        {
          "internalType": "uint256",
          "name": "",
          "type": "uint256"
        }
      ],
      "name": "names",
      "outputs": [
        {
          "internalType": "string",
          "name": "",
          "type": "string"
        }
      ],
      "stateMutability": "view",
      "type": "function"
    },
    {
      "inputs": [],
      "name": "owner",
      "outputs": [
        {
          "internalType": "address payable",
          "name": "",
          "type": "address"
        }
      ],
      "stateMutability": "view",
      "type": "function"
    },
    {
      "inputs": [
        {
          "internalType": "uint256",
          "name": "tokenId",
          "type": "uint256"
        }
      ],
      "name": "ownerOf",
      "outputs": [
        {
          "internalType": "address",
          "name": "",
          "type": "address"
        }
      ],
      "stateMutability": "view",
      "type": "function"
    },
    {
      "inputs": [
        {
          "internalType": "string",
          "name": "name",
          "type": "string"
        }
      ],
      "name": "price",
      "outputs": [
        {
          "internalType": "uint256",
          "name": "",
          "type": "uint256"
        }
      ],
      "stateMutability": "pure",
      "type": "function"
    },
    {
      "inputs": [
        {
          "internalType": "string",
          "name": "",
          "type": "string"
        }
      ],
      "name": "records",
      "outputs": [
        {
          "internalType": "string",
          "name": "",
          "type": "string"
        }
      ],
      "stateMutability": "view",
      "type": "function"
    },
    {
      "inputs": [
        {
          "internalType": "string",
          "name": "name",
          "type": "string"
        }
      ],
      "name": "register",
      "outputs": [],
      "stateMutability": "payable",
      "type": "function"
    },
    {
      "inputs": [
        {
          "internalType": "address",
          "name": "from",
          "type": "address"
        },
        {
          "internalType": "address",
          "name": "to",
          "type": "address"
        },
        {
          "internalType": "uint256",
          "name": "tokenId",
          "type": "uint256"
        }
      ],
      "name": "safeTransferFrom",
      "outputs": [],
      "stateMutability": "nonpayable",
      "type": "function"
    },
    {
      "inputs": [
        {
          "internalType": "address",
          "name": "from",
          "type": "address"
        },
        {
          "internalType": "address",
          "name": "to",
          "type": "address"
        },
        {
          "internalType": "uint256",
          "name": "tokenId",
          "type": "uint256"
        },
        {
          "internalType": "bytes",
          "name": "_data",
          "type": "bytes"
        }
      ],
      "name": "safeTransferFrom",
      "outputs": [],
      "stateMutability": "nonpayable",
      "type": "function"
    },
    {
      "inputs": [
        {
          "internalType": "address",
          "name": "operator",
          "type": "address"
        },
        {
          "internalType": "bool",
          "name": "approved",
          "type": "bool"
        }
      ],
      "name": "setApprovalForAll",
      "outputs": [],
      "stateMutability": "nonpayable",
      "type": "function"
    },
    {
      "inputs": [
        {
          "internalType": "string",
          "name": "name",
          "type": "string"
        },
        {
          "internalType": "string",
          "name": "record",
          "type": "string"
        }
      ],
      "name": "setRecord",
      "outputs": [],
      "stateMutability": "nonpayable",
      "type": "function"
    },
    {
      "inputs": [
        {
          "internalType": "string",
          "name": "name",
          "type": "string"
        },
        {
          "internalType": "string",
          "name": "_twitter",
          "type": "string"
        }
      ],
      "name": "setTwitter",
      "outputs": [],
      "stateMutability": "nonpayable",
      "type": "function"
    },
    {
      "inputs": [
        {
          "internalType": "bytes4",
          "name": "interfaceId",
          "type": "bytes4"
        }
      ],
      "name": "supportsInterface",
      "outputs": [
        {
          "internalType": "bool",
          "name": "",
          "type": "bool"
        }
      ],
      "stateMutability": "view",
      "type": "function"
    },
    {
      "inputs": [],
      "name": "symbol",
      "outputs": [
        {
          "internalType": "string",
          "name": "",
          "type": "string"
        }
      ],
      "stateMutability": "view",
      "type": "function"
    },
    {
      "inputs": [],
      "name": "tld",
      "outputs": [
        {
          "internalType": "string",
          "name": "",
          "type": "string"
        }
      ],
      "stateMutability": "view",
      "type": "function"
    },
    {
      "inputs": [
        {
          "internalType": "uint256",
          "name": "tokenId",
          "type": "uint256"
        }
      ],
      "name": "tokenURI",
      "outputs": [
        {
          "internalType": "string",
          "name": "",
          "type": "string"
        }
      ],
      "stateMutability": "view",
      "type": "function"
    },
    {
      "inputs": [
        {
          "internalType": "address",
          "name": "from",
          "type": "address"
        },
        {
          "internalType": "address",
          "name": "to",
          "type": "address"
        },
        {
          "internalType": "uint256",
          "name": "tokenId",
          "type": "uint256"
        }
      ],
      "name": "transferFrom",
      "outputs": [],
      "stateMutability": "nonpayable",
      "type": "function"
    },
    {
      "inputs": [
        {
          "internalType": "string",
          "name": "",
          "type": "string"
        }
      ],
      "name": "twitter",
      "outputs": [
        {
          "internalType": "string",
          "name": "",
          "type": "string"
        }
      ],
      "stateMutability": "view",
      "type": "function"
    },
    {
      "inputs": [],
      "name": "withdraw",
      "outputs": [],
      "stateMutability": "nonpayable",
      "type": "function"
    }
  ],
  "bytecode": "0x6080604052604051806108a0016040528061086b81526020016200549361086b9139600d908051906020019062000038929190620002c8565b506040518060400160405280600d81526020017f3c2f746578743e3c2f7376673e00000000000000000000000000000000000000815250600e908051906020019062000086929190620002c8565b5060405162005cfe38038062005cfe8339818101604052810190620000ac919062000515565b6040518060400160405280600f81526020017f444556204e616d652073657276696500000000000000000000000000000000008152506040518060400160405280600381526020017f444e530000000000000000000000000000000000000000000000000000000000815250816000908051906020019062000130929190620002c8565b50806001908051906020019062000149929190620002c8565b50505033600860006101000a81548173ffffffffffffffffffffffffffffffffffffffff021916908373ffffffffffffffffffffffffffffffffffffffff16021790555080600f9080519060200190620001a5929190620002c8565b50620001f26040518060400160405280601981526020017f2573206e616d652073657276696365206465706c6f796564200000000000000081525082620001f960201b62001cf81760201c565b5062000663565b6200029b828260405160240162000212929190620005c3565b6040516020818303038152906040527f4b5c4277000000000000000000000000000000000000000000000000000000007bffffffffffffffffffffffffffffffffffffffffffffffffffffffff19166020820180517bffffffffffffffffffffffffffffffffffffffffffffffffffffffff83818316178352505050506200029f60201b60201c565b5050565b60008151905060006a636f6e736f6c652e6c6f679050602083016000808483855afa5050505050565b828054620002d6906200062d565b90600052602060002090601f016020900481019282620002fa576000855562000346565b82601f106200031557805160ff191683800117855562000346565b8280016001018555821562000346579182015b828111156200034557825182559160200191906001019062000328565b5b50905062000355919062000359565b5090565b5b80821115620003745760008160009055506001016200035a565b5090565b6000604051905090565b600080fd5b600080fd5b600080fd5b600080fd5b6000601f19601f8301169050919050565b7f4e487b7100000000000000000000000000000000000000000000000000000000600052604160045260246000fd5b620003e18262000396565b810181811067ffffffffffffffff82111715620004035762000402620003a7565b5b80604052505050565b60006200041862000378565b9050620004268282620003d6565b919050565b600067ffffffffffffffff821115620004495762000448620003a7565b5b620004548262000396565b9050602081019050919050565b60005b838110156200048157808201518184015260208101905062000464565b8381111562000491576000848401525b50505050565b6000620004ae620004a8846200042b565b6200040c565b905082815260208101848484011115620004cd57620004cc62000391565b5b620004da84828562000461565b509392505050565b600082601f830112620004fa57620004f96200038c565b5b81516200050c84826020860162000497565b91505092915050565b6000602082840312156200052e576200052d62000382565b5b600082015167ffffffffffffffff8111156200054f576200054e62000387565b5b6200055d84828501620004e2565b91505092915050565b600081519050919050565b600082825260208201905092915050565b60006200058f8262000566565b6200059b818562000571565b9350620005ad81856020860162000461565b620005b88162000396565b840191505092915050565b60006040820190508181036000830152620005df818562000582565b90508181036020830152620005f5818462000582565b90509392505050565b7f4e487b7100000000000000000000000000000000000000000000000000000000600052602260045260246000fd5b600060028204905060018216806200064657607f821691505b602082108114156200065d576200065c620005fe565b5b50919050565b614e2080620006736000396000f3fe6080604052600436106101c25760003560e01c80636352211e116100f7578063b88d4fde11610095578063e985e9c511610064578063e985e9c5146106b0578063f2c298be146106ed578063fb825e5f14610709578063fe2c619814610734576101c2565b8063b88d4fde146105e4578063bf40fac11461060d578063c1880a981461064a578063c87b56dd14610673576101c2565b80638f32d59b116100d15780638f32d59b1461052857806392f7424f1461055357806395d89b4114610590578063a22cb465146105bb576101c2565b80636352211e1461048357806370a08231146104c05780638da5cb5b146104fd576101c2565b80632d5514321161016457806342842e0e1161013e57806342842e0e146103a35780634622ab03146103cc57806353e69abc14610409578063541e771d14610446576101c2565b80632d551432146103385780633b6e1c97146103635780633ccfd60b1461038c576101c2565b8063095ea7b3116101a0578063095ea7b31461026c57806311dd88451461029557806323b872dd146102d257806326449235146102fb576101c2565b806301ffc9a7146101c757806306fdde0314610204578063081812fc1461022f575b600080fd5b3480156101d357600080fd5b506101ee60048036038101906101e991906131dd565b610771565b6040516101fb9190613225565b60405180910390f35b34801561021057600080fd5b50610219610853565b60405161022691906132d9565b60405180910390f35b34801561023b57600080fd5b5061025660048036038101906102519190613331565b6108e5565b604051610263919061339f565b60405180910390f35b34801561027857600080fd5b50610293600480360381019061028e91906133e6565b61096a565b005b3480156102a157600080fd5b506102bc60048036038101906102b7919061348b565b610a82565b6040516102c991906132d9565b60405180910390f35b3480156102de57600080fd5b506102f960048036038101906102f491906134d8565b610b35565b005b34801561030757600080fd5b50610322600480360381019061031d919061365b565b610b95565b60405161032f919061339f565b60405180910390f35b34801561034457600080fd5b5061034d610bde565b60405161035a91906132d9565b60405180910390f35b34801561036f57600080fd5b5061038a600480360381019061038591906136a4565b610c6c565b005b34801561039857600080fd5b506103a1610d1a565b005b3480156103af57600080fd5b506103ca60048036038101906103c591906134d8565b610de0565b005b3480156103d857600080fd5b506103f360048036038101906103ee9190613331565b610e00565b60405161040091906132d9565b60405180910390f35b34801561041557600080fd5b50610430600480360381019061042b919061348b565b610ea0565b60405161043d91906132d9565b60405180910390f35b34801561045257600080fd5b5061046d6004803603810190610468919061365b565b610f53565b60405161047a91906132d9565b60405180910390f35b34801561048f57600080fd5b506104aa60048036038101906104a59190613331565b611009565b6040516104b7919061339f565b60405180910390f35b3480156104cc57600080fd5b506104e760048036038101906104e29190613725565b6110bb565b6040516104f49190613761565b60405180910390f35b34801561050957600080fd5b50610512611173565b60405161051f919061379d565b60405180910390f35b34801561053457600080fd5b5061053d611199565b60405161054a9190613225565b60405180910390f35b34801561055f57600080fd5b5061057a6004803603810190610575919061365b565b6111f1565b60405161058791906132d9565b60405180910390f35b34801561059c57600080fd5b506105a56112a7565b6040516105b291906132d9565b60405180910390f35b3480156105c757600080fd5b506105e260048036038101906105dd91906137e4565b611339565b005b3480156105f057600080fd5b5061060b600480360381019061060691906138c5565b61134f565b005b34801561061957600080fd5b50610634600480360381019061062f919061348b565b6113b1565b604051610641919061339f565b60405180910390f35b34801561065657600080fd5b50610671600480360381019061066c91906136a4565b6113fc565b005b34801561067f57600080fd5b5061069a60048036038101906106959190613331565b6114aa565b6040516106a791906132d9565b60405180910390f35b3480156106bc57600080fd5b506106d760048036038101906106d29190613948565b6115fc565b6040516106e49190613225565b60405180910390f35b6107076004803603810190610702919061348b565b611690565b005b34801561071557600080fd5b5061071e611a94565b60405161072b9190613a94565b60405180910390f35b34801561074057600080fd5b5061075b6004803603810190610756919061348b565b611c55565b6040516107689190613761565b60405180910390f35b60007f80ac58cd000000000000000000000000000000000000000000000000000000007bffffffffffffffffffffffffffffffffffffffffffffffffffffffff1916827bffffffffffffffffffffffffffffffffffffffffffffffffffffffff1916148061083c57507f5b5e139f000000000000000000000000000000000000000000000000000000007bffffffffffffffffffffffffffffffffffffffffffffffffffffffff1916827bffffffffffffffffffffffffffffffffffffffffffffffffffffffff1916145b8061084c575061084b82611d94565b5b9050919050565b60606000805461086290613ae5565b80601f016020809104026020016040519081016040528092919081815260200182805461088e90613ae5565b80156108db5780601f106108b0576101008083540402835291602001916108db565b820191906000526020600020905b8154815290600101906020018083116108be57829003601f168201915b5050505050905090565b60006108f082611dfe565b61092f576040517f08c379a000000000000000000000000000000000000000000000000000000000815260040161092690613b89565b60405180910390fd5b6004600083815260200190815260200160002060009054906101000a900473ffffffffffffffffffffffffffffffffffffffff169050919050565b600061097582611009565b90508073ffffffffffffffffffffffffffffffffffffffff168373ffffffffffffffffffffffffffffffffffffffff1614156109e6576040517f08c379a00000000000000000000000000000000000000000000000000000000081526004016109dd90613c1b565b60405180910390fd5b8073ffffffffffffffffffffffffffffffffffffffff16610a05611e6a565b73ffffffffffffffffffffffffffffffffffffffff161480610a345750610a3381610a2e611e6a565b6115fc565b5b610a73576040517f08c379a0000000000000000000000000000000000000000000000000000000008152600401610a6a90613cad565b60405180910390fd5b610a7d8383611e72565b505050565b6060600b8383604051610a96929190613cfd565b90815260200160405180910390208054610aaf90613ae5565b80601f0160208091040260200160405190810160405280929190818152602001828054610adb90613ae5565b8015610b285780601f10610afd57610100808354040283529160200191610b28565b820191906000526020600020905b815481529060010190602001808311610b0b57829003601f168201915b5050505050905092915050565b610b46610b40611e6a565b82611f2b565b610b85576040517f08c379a0000000000000000000000000000000000000000000000000000000008152600401610b7c90613d88565b60405180910390fd5b610b90838383612009565b505050565b6009818051602081018201805184825260208301602085012081835280955050505050506000915054906101000a900473ffffffffffffffffffffffffffffffffffffffff1681565b600f8054610beb90613ae5565b80601f0160208091040260200160405190810160405280929190818152602001828054610c1790613ae5565b8015610c645780601f10610c3957610100808354040283529160200191610c64565b820191906000526020600020905b815481529060010190602001808311610c4757829003601f168201915b505050505081565b3373ffffffffffffffffffffffffffffffffffffffff1660098585604051610c95929190613cfd565b908152602001604051809103902060009054906101000a900473ffffffffffffffffffffffffffffffffffffffff1673ffffffffffffffffffffffffffffffffffffffff1614610ce457600080fd5b8181600c8686604051610cf8929190613cfd565b90815260200160405180910390209190610d13929190613048565b5050505050565b610d22611199565b610d2b57600080fd5b600047905060003373ffffffffffffffffffffffffffffffffffffffff1682604051610d5690613dd9565b60006040518083038185875af1925050503d8060008114610d93576040519150601f19603f3d011682016040523d82523d6000602084013e610d98565b606091505b5050905080610ddc576040517f08c379a0000000000000000000000000000000000000000000000000000000008152600401610dd390613e3a565b60405180910390fd5b5050565b610dfb8383836040518060200160405280600081525061134f565b505050565b600a6020528060005260406000206000915090508054610e1f90613ae5565b80601f0160208091040260200160405190810160405280929190818152602001828054610e4b90613ae5565b8015610e985780601f10610e6d57610100808354040283529160200191610e98565b820191906000526020600020905b815481529060010190602001808311610e7b57829003601f168201915b505050505081565b6060600c8383604051610eb4929190613cfd565b90815260200160405180910390208054610ecd90613ae5565b80601f0160208091040260200160405190810160405280929190818152602001828054610ef990613ae5565b8015610f465780601f10610f1b57610100808354040283529160200191610f46565b820191906000526020600020905b815481529060010190602001808311610f2957829003601f168201915b5050505050905092915050565b600b818051602081018201805184825260208301602085012081835280955050505050506000915090508054610f8890613ae5565b80601f0160208091040260200160405190810160405280929190818152602001828054610fb490613ae5565b80156110015780601f10610fd657610100808354040283529160200191611001565b820191906000526020600020905b815481529060010190602001808311610fe457829003601f168201915b505050505081565b6000806002600084815260200190815260200160002060009054906101000a900473ffffffffffffffffffffffffffffffffffffffff169050600073ffffffffffffffffffffffffffffffffffffffff168173ffffffffffffffffffffffffffffffffffffffff1614156110b2576040517f08c379a00000000000000000000000000000000000000000000000000000000081526004016110a990613ecc565b60405180910390fd5b80915050919050565b60008073ffffffffffffffffffffffffffffffffffffffff168273ffffffffffffffffffffffffffffffffffffffff16141561112c576040517f08c379a000000000000000000000000000000000000000000000000000000000815260040161112390613f5e565b60405180910390fd5b600360008373ffffffffffffffffffffffffffffffffffffffff1673ffffffffffffffffffffffffffffffffffffffff168152602001908152602001600020549050919050565b600860009054906101000a900473ffffffffffffffffffffffffffffffffffffffff1681565b6000600860009054906101000a900473ffffffffffffffffffffffffffffffffffffffff1673ffffffffffffffffffffffffffffffffffffffff163373ffffffffffffffffffffffffffffffffffffffff1614905090565b600c81805160208101820180518482526020830160208501208183528095505050505050600091509050805461122690613ae5565b80601f016020809104026020016040519081016040528092919081815260200182805461125290613ae5565b801561129f5780601f106112745761010080835404028352916020019161129f565b820191906000526020600020905b81548152906001019060200180831161128257829003601f168201915b505050505081565b6060600180546112b690613ae5565b80601f01602080910402602001604051908101604052809291908181526020018280546112e290613ae5565b801561132f5780601f106113045761010080835404028352916020019161132f565b820191906000526020600020905b81548152906001019060200180831161131257829003601f168201915b5050505050905090565b61134b611344611e6a565b8383612270565b5050565b61136061135a611e6a565b83611f2b565b61139f576040517f08c379a000000000000000000000000000000000000000000000000000000000815260040161139690613d88565b60405180910390fd5b6113ab848484846123dd565b50505050565b6000600983836040516113c5929190613cfd565b908152602001604051809103902060009054906101000a900473ffffffffffffffffffffffffffffffffffffffff16905092915050565b3373ffffffffffffffffffffffffffffffffffffffff1660098585604051611425929190613cfd565b908152602001604051809103902060009054906101000a900473ffffffffffffffffffffffffffffffffffffffff1673ffffffffffffffffffffffffffffffffffffffff161461147457600080fd5b8181600b8686604051611488929190613cfd565b908152602001604051809103902091906114a3929190613048565b5050505050565b60606114b582611dfe565b6114f4576040517f08c379a00000000000000000000000000000000000000000000000000000000081526004016114eb90613ff0565b60405180910390fd5b600060066000848152602001908152602001600020805461151490613ae5565b80601f016020809104026020016040519081016040528092919081815260200182805461154090613ae5565b801561158d5780601f106115625761010080835404028352916020019161158d565b820191906000526020600020905b81548152906001019060200180831161157057829003601f168201915b50505050509050600061159e612439565b90506000815114156115b45781925050506115f7565b6000825111156115e95780826040516020016115d1929190614041565b604051602081830303815290604052925050506115f7565b6115f284612450565b925050505b919050565b6000600560008473ffffffffffffffffffffffffffffffffffffffff1673ffffffffffffffffffffffffffffffffffffffff16815260200190815260200160002060008373ffffffffffffffffffffffffffffffffffffffff1673ffffffffffffffffffffffffffffffffffffffff16815260200190815260200160002060009054906101000a900460ff16905092915050565b600073ffffffffffffffffffffffffffffffffffffffff16600983836040516116ba929190613cfd565b908152602001604051809103902060009054906101000a900473ffffffffffffffffffffffffffffffffffffffff1673ffffffffffffffffffffffffffffffffffffffff161461170957600080fd5b60006117158383611c55565b90508034101561175a576040517f08c379a0000000000000000000000000000000000000000000000000000000008152600401611751906140b1565b60405180910390fd5b60008383600f604051602001611772939291906141b1565b60405160208183030381529060405290506000600d82600e60405160200161179c939291906141e2565b604051602081830303815290604052905060006117b960076124f7565b9050600061180a87878080601f016020809104026020016040519081016040528093929190818152602001838380828437600081840152601f19601f82011690508083019250505050505050612505565b90506000611817826126ba565b905061190b604051806060016040528060318152602001614d196031913989898080601f016020809104026020016040519081016040528093929190818152602001838380828437600081840152601f19601f82011690508083019250505050505050600f805461188790613ae5565b80601f01602080910402602001604051908101604052809291908181526020018280546118b390613ae5565b80156119005780601f106118d557610100808354040283529160200191611900565b820191906000526020600020905b8154815290600101906020018083116118e357829003601f168201915b50505050508661281b565b60006119418661191a876128bd565b8460405160200161192d9392919061438f565b6040516020818303038152906040526128bd565b90506000816040516020016119569190614438565b6040516020818303038152906040529050611988604051806060016040528060398152602001614ce060399139612a55565b6119c76040518060400160405280600e81526020017f46696e616c20746f6b656e55524900000000000000000000000000000000000081525082611cf8565b6119e8604051806060016040528060398152602001614d4a60399139612a55565b6119f23386612aee565b6119fc8582612b0c565b3360098b8b604051611a0f929190613cfd565b908152602001604051809103902060006101000a81548173ffffffffffffffffffffffffffffffffffffffff021916908373ffffffffffffffffffffffffffffffffffffffff1602179055508989600a60008881526020019081526020016000209190611a7d929190613048565b50611a886007612b80565b50505050505050505050565b6060611ab7604051806060016040528060288152602001614d8360289139612a55565b6000611ac360076124f7565b67ffffffffffffffff811115611adc57611adb613530565b5b604051908082528060200260200182016040528015611b0f57816020015b6060815260200190600190039081611afa5790505b50905060005b611b1f60076124f7565b811015611c4d57600a60008281526020019081526020016000208054611b4490613ae5565b80601f0160208091040260200160405190810160405280929190818152602001828054611b7090613ae5565b8015611bbd5780601f10611b9257610100808354040283529160200191611bbd565b820191906000526020600020905b815481529060010190602001808311611ba057829003601f168201915b5050505050828281518110611bd557611bd461445a565b5b6020026020010181905250611c3a6040518060400160405280601881526020017f4e616d6520666f7220746f6b656e20256420697320257320000000000000000081525082848481518110611c2d57611c2c61445a565b5b6020026020010151612b96565b8080611c45906144b8565b915050611b15565b508091505090565b600080611ca584848080601f016020809104026020016040519081016040528093929190818152602001838380828437600081840152601f19601f82011690508083019250505050505050612505565b905060008111611cb457600080fd5b6003811415611ccd57662386f26fc10000915050611cf2565b6004811415611ce6576611c37937e08000915050611cf2565b660aa87bee5380009150505b92915050565b611d908282604051602401611d0e929190614501565b6040516020818303038152906040527f4b5c4277000000000000000000000000000000000000000000000000000000007bffffffffffffffffffffffffffffffffffffffffffffffffffffffff19166020820180517bffffffffffffffffffffffffffffffffffffffffffffffffffffffff8381831617835250505050612c35565b5050565b60007f01ffc9a7000000000000000000000000000000000000000000000000000000007bffffffffffffffffffffffffffffffffffffffffffffffffffffffff1916827bffffffffffffffffffffffffffffffffffffffffffffffffffffffff1916149050919050565b60008073ffffffffffffffffffffffffffffffffffffffff166002600084815260200190815260200160002060009054906101000a900473ffffffffffffffffffffffffffffffffffffffff1673ffffffffffffffffffffffffffffffffffffffff1614159050919050565b600033905090565b816004600083815260200190815260200160002060006101000a81548173ffffffffffffffffffffffffffffffffffffffff021916908373ffffffffffffffffffffffffffffffffffffffff160217905550808273ffffffffffffffffffffffffffffffffffffffff16611ee583611009565b73ffffffffffffffffffffffffffffffffffffffff167f8c5be1e5ebec7d5bd14f71427d1e84f3dd0314c0f7b2291e5b200ac8c7c3b92560405160405180910390a45050565b6000611f3682611dfe565b611f75576040517f08c379a0000000000000000000000000000000000000000000000000000000008152600401611f6c906145aa565b60405180910390fd5b6000611f8083611009565b90508073ffffffffffffffffffffffffffffffffffffffff168473ffffffffffffffffffffffffffffffffffffffff161480611fc25750611fc181856115fc565b5b8061200057508373ffffffffffffffffffffffffffffffffffffffff16611fe8846108e5565b73ffffffffffffffffffffffffffffffffffffffff16145b91505092915050565b8273ffffffffffffffffffffffffffffffffffffffff1661202982611009565b73ffffffffffffffffffffffffffffffffffffffff161461207f576040517f08c379a00000000000000000000000000000000000000000000000000000000081526004016120769061463c565b60405180910390fd5b600073ffffffffffffffffffffffffffffffffffffffff168273ffffffffffffffffffffffffffffffffffffffff1614156120ef576040517f08c379a00000000000000000000000000000000000000000000000000000000081526004016120e6906146ce565b60405180910390fd5b6120fa838383612c5e565b612105600082611e72565b6001600360008573ffffffffffffffffffffffffffffffffffffffff1673ffffffffffffffffffffffffffffffffffffffff168152602001908152602001600020600082825461215591906146ee565b925050819055506001600360008473ffffffffffffffffffffffffffffffffffffffff1673ffffffffffffffffffffffffffffffffffffffff16815260200190815260200160002060008282546121ac9190614722565b92505081905550816002600083815260200190815260200160002060006101000a81548173ffffffffffffffffffffffffffffffffffffffff021916908373ffffffffffffffffffffffffffffffffffffffff160217905550808273ffffffffffffffffffffffffffffffffffffffff168473ffffffffffffffffffffffffffffffffffffffff167fddf252ad1be2c89b69c2b068fc378daa952ba7f163c4a11628f55a4df523b3ef60405160405180910390a461226b838383612c63565b505050565b8173ffffffffffffffffffffffffffffffffffffffff168373ffffffffffffffffffffffffffffffffffffffff1614156122df576040517f08c379a00000000000000000000000000000000000000000000000000000000081526004016122d6906147c4565b60405180910390fd5b80600560008573ffffffffffffffffffffffffffffffffffffffff1673ffffffffffffffffffffffffffffffffffffffff16815260200190815260200160002060008473ffffffffffffffffffffffffffffffffffffffff1673ffffffffffffffffffffffffffffffffffffffff16815260200190815260200160002060006101000a81548160ff0219169083151502179055508173ffffffffffffffffffffffffffffffffffffffff168373ffffffffffffffffffffffffffffffffffffffff167f17307eab39ab6107e8899845ad3d59bd9653f200f220920489ca2b5937696c31836040516123d09190613225565b60405180910390a3505050565b6123e8848484612009565b6123f484848484612c68565b612433576040517f08c379a000000000000000000000000000000000000000000000000000000000815260040161242a90614856565b60405180910390fd5b50505050565b606060405180602001604052806000815250905090565b606061245b82611dfe565b61249a576040517f08c379a0000000000000000000000000000000000000000000000000000000008152600401612491906148e8565b60405180910390fd5b60006124a4612439565b905060008151116124c457604051806020016040528060008152506124ef565b806124ce846126ba565b6040516020016124df929190614041565b6040516020818303038152906040525b915050919050565b600081600001549050919050565b60008060008084519050600092505b808210156126af5760008583815181106125315761253061445a565b5b602001015160f81c60f81b9050608060f81b817effffffffffffffffffffffffffffffffffffffffffffffffffffffffffffff19161015612580576001836125799190614722565b925061269b565b60e060f81b817effffffffffffffffffffffffffffffffffffffffffffffffffffffffffffff191610156125c2576002836125bb9190614722565b925061269a565b60f060f81b817effffffffffffffffffffffffffffffffffffffffffffffffffffffffffffff19161015612604576003836125fd9190614722565b9250612699565b60f8801b817effffffffffffffffffffffffffffffffffffffffffffffffffffffffffffff191610156126455760048361263e9190614722565b9250612698565b60fc60f81b817effffffffffffffffffffffffffffffffffffffffffffffffffffffffffffff19161015612687576005836126809190614722565b9250612697565b6006836126949190614722565b92505b5b5b5b5b5082806126a7906144b8565b935050612514565b829350505050919050565b60606000821415612702576040518060400160405280600181526020017f30000000000000000000000000000000000000000000000000000000000000008152509050612816565b600082905060005b6000821461273457808061271d906144b8565b915050600a8261272d9190614937565b915061270a565b60008167ffffffffffffffff8111156127505761274f613530565b5b6040519080825280601f01601f1916602001820160405280156127825781602001600182028036833780820191505090505b5090505b6000851461280f5760018261279b91906146ee565b9150600a856127aa9190614968565b60306127b69190614722565b60f81b8183815181106127cc576127cb61445a565b5b60200101907effffffffffffffffffffffffffffffffffffffffffffffffffffffffffffff1916908160001a905350600a856128089190614937565b9450612786565b8093505050505b919050565b6128b7848484846040516024016128359493929190614999565b6040516020818303038152906040527f9fd009f5000000000000000000000000000000000000000000000000000000007bffffffffffffffffffffffffffffffffffffffffffffffffffffffff19166020820180517bffffffffffffffffffffffffffffffffffffffffffffffffffffffff8381831617835250505050612c35565b50505050565b606060008251905060008114156128e65760405180602001604052806000815250915050612a50565b600060036002836128f79190614722565b6129019190614937565b600461290d91906149f3565b9050600060208261291e9190614722565b67ffffffffffffffff81111561293757612936613530565b5b6040519080825280601f01601f1916602001820160405280156129695781602001600182028036833780820191505090505b5090506000604051806060016040528060408152602001614dab604091399050600181016020830160005b86811015612a0d5760038101905062ffffff818a015116603f8160121c168401518060081b905060ff603f83600c1c1686015116810190508060081b905060ff603f8360061c1686015116810190508060081b905060ff603f831686015116810190508060e01b90508084526004840193505050612994565b506003860660018114612a275760028114612a3757612a42565b613d3d60f01b6002830352612a42565b603d60f81b60018303525b508484525050819450505050505b919050565b612aeb81604051602401612a6991906132d9565b6040516020818303038152906040527f41304fac000000000000000000000000000000000000000000000000000000007bffffffffffffffffffffffffffffffffffffffffffffffffffffffff19166020820180517bffffffffffffffffffffffffffffffffffffffffffffffffffffffff8381831617835250505050612c35565b50565b612b08828260405180602001604052806000815250612df0565b5050565b612b1582611dfe565b612b54576040517f08c379a0000000000000000000000000000000000000000000000000000000008152600401612b4b90614abf565b60405180910390fd5b80600660008481526020019081526020016000209080519060200190612b7b9291906130ce565b505050565b6001816000016000828254019250508190555050565b612c30838383604051602401612bae93929190614adf565b6040516020818303038152906040527fa3f5c739000000000000000000000000000000000000000000000000000000007bffffffffffffffffffffffffffffffffffffffffffffffffffffffff19166020820180517bffffffffffffffffffffffffffffffffffffffffffffffffffffffff8381831617835250505050612c35565b505050565b60008151905060006a636f6e736f6c652e6c6f679050602083016000808483855afa5050505050565b505050565b505050565b6000612c898473ffffffffffffffffffffffffffffffffffffffff16612e4b565b15612de3578373ffffffffffffffffffffffffffffffffffffffff1663150b7a02612cb2611e6a565b8786866040518563ffffffff1660e01b8152600401612cd49493929190614b79565b6020604051808303816000875af1925050508015612d1057506040513d601f19601f82011682018060405250810190612d0d9190614bda565b60015b612d93573d8060008114612d40576040519150601f19603f3d011682016040523d82523d6000602084013e612d45565b606091505b50600081511415612d8b576040517f08c379a0000000000000000000000000000000000000000000000000000000008152600401612d8290614856565b60405180910390fd5b805181602001fd5b63150b7a0260e01b7bffffffffffffffffffffffffffffffffffffffffffffffffffffffff1916817bffffffffffffffffffffffffffffffffffffffffffffffffffffffff191614915050612de8565b600190505b949350505050565b612dfa8383612e6e565b612e076000848484612c68565b612e46576040517f08c379a0000000000000000000000000000000000000000000000000000000008152600401612e3d90614856565b60405180910390fd5b505050565b6000808273ffffffffffffffffffffffffffffffffffffffff163b119050919050565b600073ffffffffffffffffffffffffffffffffffffffff168273ffffffffffffffffffffffffffffffffffffffff161415612ede576040517f08c379a0000000000000000000000000000000000000000000000000000000008152600401612ed590614c53565b60405180910390fd5b612ee781611dfe565b15612f27576040517f08c379a0000000000000000000000000000000000000000000000000000000008152600401612f1e90614cbf565b60405180910390fd5b612f3360008383612c5e565b6001600360008473ffffffffffffffffffffffffffffffffffffffff1673ffffffffffffffffffffffffffffffffffffffff1681526020019081526020016000206000828254612f839190614722565b92505081905550816002600083815260200190815260200160002060006101000a81548173ffffffffffffffffffffffffffffffffffffffff021916908373ffffffffffffffffffffffffffffffffffffffff160217905550808273ffffffffffffffffffffffffffffffffffffffff16600073ffffffffffffffffffffffffffffffffffffffff167fddf252ad1be2c89b69c2b068fc378daa952ba7f163c4a11628f55a4df523b3ef60405160405180910390a461304460008383612c63565b5050565b82805461305490613ae5565b90600052602060002090601f01602090048101928261307657600085556130bd565b82601f1061308f57803560ff19168380011785556130bd565b828001600101855582156130bd579182015b828111156130bc5782358255916020019190600101906130a1565b5b5090506130ca9190613154565b5090565b8280546130da90613ae5565b90600052602060002090601f0160209004810192826130fc5760008555613143565b82601f1061311557805160ff1916838001178555613143565b82800160010185558215613143579182015b82811115613142578251825591602001919060010190613127565b5b5090506131509190613154565b5090565b5b8082111561316d576000816000905550600101613155565b5090565b6000604051905090565b600080fd5b600080fd5b60007fffffffff0000000000000000000000000000000000000000000000000000000082169050919050565b6131ba81613185565b81146131c557600080fd5b50565b6000813590506131d7816131b1565b92915050565b6000602082840312156131f3576131f261317b565b5b6000613201848285016131c8565b91505092915050565b60008115159050919050565b61321f8161320a565b82525050565b600060208201905061323a6000830184613216565b92915050565b600081519050919050565b600082825260208201905092915050565b60005b8381101561327a57808201518184015260208101905061325f565b83811115613289576000848401525b50505050565b6000601f19601f8301169050919050565b60006132ab82613240565b6132b5818561324b565b93506132c581856020860161325c565b6132ce8161328f565b840191505092915050565b600060208201905081810360008301526132f381846132a0565b905092915050565b6000819050919050565b61330e816132fb565b811461331957600080fd5b50565b60008135905061332b81613305565b92915050565b6000602082840312156133475761334661317b565b5b60006133558482850161331c565b91505092915050565b600073ffffffffffffffffffffffffffffffffffffffff82169050919050565b60006133898261335e565b9050919050565b6133998161337e565b82525050565b60006020820190506133b46000830184613390565b92915050565b6133c38161337e565b81146133ce57600080fd5b50565b6000813590506133e0816133ba565b92915050565b600080604083850312156133fd576133fc61317b565b5b600061340b858286016133d1565b925050602061341c8582860161331c565b9150509250929050565b600080fd5b600080fd5b600080fd5b60008083601f84011261344b5761344a613426565b5b8235905067ffffffffffffffff8111156134685761346761342b565b5b60208301915083600182028301111561348457613483613430565b5b9250929050565b600080602083850312156134a2576134a161317b565b5b600083013567ffffffffffffffff8111156134c0576134bf613180565b5b6134cc85828601613435565b92509250509250929050565b6000806000606084860312156134f1576134f061317b565b5b60006134ff868287016133d1565b9350506020613510868287016133d1565b92505060406135218682870161331c565b9150509250925092565b600080fd5b7f4e487b7100000000000000000000000000000000000000000000000000000000600052604160045260246000fd5b6135688261328f565b810181811067ffffffffffffffff8211171561358757613586613530565b5b80604052505050565b600061359a613171565b90506135a6828261355f565b919050565b600067ffffffffffffffff8211156135c6576135c5613530565b5b6135cf8261328f565b9050602081019050919050565b82818337600083830152505050565b60006135fe6135f9846135ab565b613590565b90508281526020810184848401111561361a5761361961352b565b5b6136258482856135dc565b509392505050565b600082601f83011261364257613641613426565b5b81356136528482602086016135eb565b91505092915050565b6000602082840312156136715761367061317b565b5b600082013567ffffffffffffffff81111561368f5761368e613180565b5b61369b8482850161362d565b91505092915050565b600080600080604085870312156136be576136bd61317b565b5b600085013567ffffffffffffffff8111156136dc576136db613180565b5b6136e887828801613435565b9450945050602085013567ffffffffffffffff81111561370b5761370a613180565b5b61371787828801613435565b925092505092959194509250565b60006020828403121561373b5761373a61317b565b5b6000613749848285016133d1565b91505092915050565b61375b816132fb565b82525050565b60006020820190506137766000830184613752565b92915050565b60006137878261335e565b9050919050565b6137978161377c565b82525050565b60006020820190506137b2600083018461378e565b92915050565b6137c18161320a565b81146137cc57600080fd5b50565b6000813590506137de816137b8565b92915050565b600080604083850312156137fb576137fa61317b565b5b6000613809858286016133d1565b925050602061381a858286016137cf565b9150509250929050565b600067ffffffffffffffff82111561383f5761383e613530565b5b6138488261328f565b9050602081019050919050565b600061386861386384613824565b613590565b9050828152602081018484840111156138845761388361352b565b5b61388f8482856135dc565b509392505050565b600082601f8301126138ac576138ab613426565b5b81356138bc848260208601613855565b91505092915050565b600080600080608085870312156138df576138de61317b565b5b60006138ed878288016133d1565b94505060206138fe878288016133d1565b935050604061390f8782880161331c565b925050606085013567ffffffffffffffff8111156139305761392f613180565b5b61393c87828801613897565b91505092959194509250565b6000806040838503121561395f5761395e61317b565b5b600061396d858286016133d1565b925050602061397e858286016133d1565b9150509250929050565b600081519050919050565b600082825260208201905092915050565b6000819050602082019050919050565b600082825260208201905092915050565b60006139d082613240565b6139da81856139b4565b93506139ea81856020860161325c565b6139f38161328f565b840191505092915050565b6000613a0a83836139c5565b905092915050565b6000602082019050919050565b6000613a2a82613988565b613a348185613993565b935083602082028501613a46856139a4565b8060005b85811015613a825784840389528151613a6385826139fe565b9450613a6e83613a12565b925060208a01995050600181019050613a4a565b50829750879550505050505092915050565b60006020820190508181036000830152613aae8184613a1f565b905092915050565b7f4e487b7100000000000000000000000000000000000000000000000000000000600052602260045260246000fd5b60006002820490506001821680613afd57607f821691505b60208210811415613b1157613b10613ab6565b5b50919050565b7f4552433732313a20617070726f76656420717565727920666f72206e6f6e657860008201527f697374656e7420746f6b656e0000000000000000000000000000000000000000602082015250565b6000613b73602c8361324b565b9150613b7e82613b17565b604082019050919050565b60006020820190508181036000830152613ba281613b66565b9050919050565b7f4552433732313a20617070726f76616c20746f2063757272656e74206f776e6560008201527f7200000000000000000000000000000000000000000000000000000000000000602082015250565b6000613c0560218361324b565b9150613c1082613ba9565b604082019050919050565b60006020820190508181036000830152613c3481613bf8565b9050919050565b7f4552433732313a20617070726f76652063616c6c6572206973206e6f74206f7760008201527f6e6572206e6f7220617070726f76656420666f7220616c6c0000000000000000602082015250565b6000613c9760388361324b565b9150613ca282613c3b565b604082019050919050565b60006020820190508181036000830152613cc681613c8a565b9050919050565b600081905092915050565b6000613ce48385613ccd565b9350613cf18385846135dc565b82840190509392505050565b6000613d0a828486613cd8565b91508190509392505050565b7f4552433732313a207472616e736665722063616c6c6572206973206e6f74206f60008201527f776e6572206e6f7220617070726f766564000000000000000000000000000000602082015250565b6000613d7260318361324b565b9150613d7d82613d16565b604082019050919050565b60006020820190508181036000830152613da181613d65565b9050919050565b600081905092915050565b50565b6000613dc3600083613da8565b9150613dce82613db3565b600082019050919050565b6000613de482613db6565b9150819050919050565b7f4661696c656420746f207769746864726177204d617469630000000000000000600082015250565b6000613e2460188361324b565b9150613e2f82613dee565b602082019050919050565b60006020820190508181036000830152613e5381613e17565b9050919050565b7f4552433732313a206f776e657220717565727920666f72206e6f6e657869737460008201527f656e7420746f6b656e0000000000000000000000000000000000000000000000602082015250565b6000613eb660298361324b565b9150613ec182613e5a565b604082019050919050565b60006020820190508181036000830152613ee581613ea9565b9050919050565b7f4552433732313a2062616c616e636520717565727920666f7220746865207a6560008201527f726f206164647265737300000000000000000000000000000000000000000000602082015250565b6000613f48602a8361324b565b9150613f5382613eec565b604082019050919050565b60006020820190508181036000830152613f7781613f3b565b9050919050565b7f45524337323155524953746f726167653a2055524920717565727920666f722060008201527f6e6f6e6578697374656e7420746f6b656e000000000000000000000000000000602082015250565b6000613fda60318361324b565b9150613fe582613f7e565b604082019050919050565b6000602082019050818103600083015261400981613fcd565b9050919050565b600061401b82613240565b6140258185613ccd565b935061403581856020860161325c565b80840191505092915050565b600061404d8285614010565b91506140598284614010565b91508190509392505050565b7f4e6f7420456e6f756768204d6174696320706169640000000000000000000000600082015250565b600061409b60158361324b565b91506140a682614065565b602082019050919050565b600060208201905081810360008301526140ca8161408e565b9050919050565b7f2e00000000000000000000000000000000000000000000000000000000000000600082015250565b6000614107600183613ccd565b9150614112826140d1565b600182019050919050565b60008190508160005260206000209050919050565b6000815461413f81613ae5565b6141498186613ccd565b945060018216600081146141645760018114614175576141a8565b60ff198316865281860193506141a8565b61417e8561411d565b60005b838110156141a057815481890152600182019150602081019050614181565b838801955050505b50505092915050565b60006141be828587613cd8565b91506141c9826140fa565b91506141d58284614132565b9150819050949350505050565b60006141ee8286614132565b91506141fa8285614010565b91506142068284614132565b9150819050949350505050565b7f7b226e616d65223a202200000000000000000000000000000000000000000000600082015250565b6000614249600a83613ccd565b915061425482614213565b600a82019050919050565b7f222c20226465736372697074696f6e223a20224120646f6d61696e206f6e207460008201527f686520646576206e616d652073657276696365222c2022696d616765223a202260208201527f646174613a696d6167652f7376672b786d6c3b6261736536342c000000000000604082015250565b60006142e1605a83613ccd565b91506142ec8261425f565b605a82019050919050565b7f222c226c656e677468223a220000000000000000000000000000000000000000600082015250565b600061432d600c83613ccd565b9150614338826142f7565b600c82019050919050565b7f227d000000000000000000000000000000000000000000000000000000000000600082015250565b6000614379600283613ccd565b915061438482614343565b600282019050919050565b600061439a8261423c565b91506143a68286614010565b91506143b1826142d4565b91506143bd8285614010565b91506143c882614320565b91506143d48284614010565b91506143df8261436c565b9150819050949350505050565b7f646174613a6170706c69636174696f6e2f6a736f6e3b6261736536342c000000600082015250565b6000614422601d83613ccd565b915061442d826143ec565b601d82019050919050565b600061444382614415565b915061444f8284614010565b915081905092915050565b7f4e487b7100000000000000000000000000000000000000000000000000000000600052603260045260246000fd5b7f4e487b7100000000000000000000000000000000000000000000000000000000600052601160045260246000fd5b60006144c3826132fb565b91507fffffffffffffffffffffffffffffffffffffffffffffffffffffffffffffffff8214156144f6576144f5614489565b5b600182019050919050565b6000604082019050818103600083015261451b81856132a0565b9050818103602083015261452f81846132a0565b90509392505050565b7f4552433732313a206f70657261746f7220717565727920666f72206e6f6e657860008201527f697374656e7420746f6b656e0000000000000000000000000000000000000000602082015250565b6000614594602c8361324b565b915061459f82614538565b604082019050919050565b600060208201905081810360008301526145c381614587565b9050919050565b7f4552433732313a207472616e736665722066726f6d20696e636f72726563742060008201527f6f776e6572000000000000000000000000000000000000000000000000000000602082015250565b600061462660258361324b565b9150614631826145ca565b604082019050919050565b6000602082019050818103600083015261465581614619565b9050919050565b7f4552433732313a207472616e7366657220746f20746865207a65726f2061646460008201527f7265737300000000000000000000000000000000000000000000000000000000602082015250565b60006146b860248361324b565b91506146c38261465c565b604082019050919050565b600060208201905081810360008301526146e7816146ab565b9050919050565b60006146f9826132fb565b9150614704836132fb565b92508282101561471757614716614489565b5b828203905092915050565b600061472d826132fb565b9150614738836132fb565b9250827fffffffffffffffffffffffffffffffffffffffffffffffffffffffffffffffff0382111561476d5761476c614489565b5b828201905092915050565b7f4552433732313a20617070726f766520746f2063616c6c657200000000000000600082015250565b60006147ae60198361324b565b91506147b982614778565b602082019050919050565b600060208201905081810360008301526147dd816147a1565b9050919050565b7f4552433732313a207472616e7366657220746f206e6f6e20455243373231526560008201527f63656976657220696d706c656d656e7465720000000000000000000000000000602082015250565b600061484060328361324b565b915061484b826147e4565b604082019050919050565b6000602082019050818103600083015261486f81614833565b9050919050565b7f4552433732314d657461646174613a2055524920717565727920666f72206e6f60008201527f6e6578697374656e7420746f6b656e0000000000000000000000000000000000602082015250565b60006148d2602f8361324b565b91506148dd82614876565b604082019050919050565b60006020820190508181036000830152614901816148c5565b9050919050565b7f4e487b7100000000000000000000000000000000000000000000000000000000600052601260045260246000fd5b6000614942826132fb565b915061494d836132fb565b92508261495d5761495c614908565b5b828204905092915050565b6000614973826132fb565b915061497e836132fb565b92508261498e5761498d614908565b5b828206905092915050565b600060808201905081810360008301526149b381876132a0565b905081810360208301526149c781866132a0565b905081810360408301526149db81856132a0565b90506149ea6060830184613752565b95945050505050565b60006149fe826132fb565b9150614a09836132fb565b9250817fffffffffffffffffffffffffffffffffffffffffffffffffffffffffffffffff0483118215151615614a4257614a41614489565b5b828202905092915050565b7f45524337323155524953746f726167653a2055524920736574206f66206e6f6e60008201527f6578697374656e7420746f6b656e000000000000000000000000000000000000602082015250565b6000614aa9602e8361324b565b9150614ab482614a4d565b604082019050919050565b60006020820190508181036000830152614ad881614a9c565b9050919050565b60006060820190508181036000830152614af981866132a0565b9050614b086020830185613752565b8181036040830152614b1a81846132a0565b9050949350505050565b600081519050919050565b600082825260208201905092915050565b6000614b4b82614b24565b614b558185614b2f565b9350614b6581856020860161325c565b614b6e8161328f565b840191505092915050565b6000608082019050614b8e6000830187613390565b614b9b6020830186613390565b614ba86040830185613752565b8181036060830152614bba8184614b40565b905095945050505050565b600081519050614bd4816131b1565b92915050565b600060208284031215614bf057614bef61317b565b5b6000614bfe84828501614bc5565b91505092915050565b7f4552433732313a206d696e7420746f20746865207a65726f2061646472657373600082015250565b6000614c3d60208361324b565b9150614c4882614c07565b602082019050919050565b60006020820190508181036000830152614c6c81614c30565b9050919050565b7f4552433732313a20746f6b656e20616c7265616479206d696e74656400000000600082015250565b6000614ca9601c8361324b565b9150614cb482614c73565b602082019050919050565b60006020820190508181036000830152614cd881614c9c565b905091905056fe0a2d2d2d2d2d2d2d2d2d2d2d2d2d2d2d2d2d2d2d2d2d2d2d2d2d2d2d2d2d2d2d2d2d2d2d2d2d2d2d2d2d2d2d2d2d2d2d2d2d2d2d2d2d2d2d2d5265676973746572696e672025732e2573206f6e2074686520636f6e7472616374207769746820746f6b656e49442025642d2d2d2d2d2d2d2d2d2d2d2d2d2d2d2d2d2d2d2d2d2d2d2d2d2d2d2d2d2d2d2d2d2d2d2d2d2d2d2d2d2d2d2d2d2d2d2d2d2d2d2d2d2d2d2d0a47657474696e6720616c6c20746865206e616d65732066726f6d2074686520636f6e7472616374204142434445464748494a4b4c4d4e4f505152535455565758595a6162636465666768696a6b6c6d6e6f707172737475767778797a303132333435363738392b2fa2646970667358221220a5d2ba6d9a8f62122e1a88daf8eb6d00a6367879f8a4fd4342647347e43055b764736f6c634300080a00333c73766720786d6c6e733d22687474703a2f2f7777772e77332e6f72672f323030302f737667222077696474683d2232373022206865696768743d22323730222066696c6c3d226e6f6e65223e3c706174682066696c6c3d2275726c282342292220643d224d302030683237307632373048307a222f3e3c646566733e3c66696c7465722069643d22412220636f6c6f722d696e746572706f6c6174696f6e2d66696c746572733d2273524742222066696c746572556e6974733d227573657253706163654f6e55736522206865696768743d22323730222077696474683d22323730223e3c666544726f70536861646f772064783d2230222064793d22312220737464446576696174696f6e3d22322220666c6f6f642d6f7061636974793d222e323235222077696474683d223230302522206865696768743d2232303025222f3e3c2f66696c7465723e3c2f646566733e3c7061746820643d224d37322e3836332034322e393439632d2e3636382d2e3338372d312e3432362d2e35392d322e3139372d2e3539732d312e3532392e3230342d322e3139372e35396c2d31302e30383120362e3033322d362e383520332e3933342d31302e30383120362e303332632d2e3636382e3338372d312e3432362e35392d322e3139372e3539732d312e3532392d2e3230342d322e3139372d2e35396c2d382e3031332d342e37323161342e353220342e35322030203020312d312e3538392d312e363136632d2e3338342d2e3636352d2e3539342d312e3431382d2e3630382d322e313837762d392e3331632d2e3031332d2e3737352e3138352d312e3533382e3537322d322e32303861342e323520342e323520302030203120312e3632352d312e3539356c372e3838342d342e3539632e3636382d2e33383720312e3432362d2e353920322e3139372d2e353973312e3532392e32303420322e3139372e35396c372e38383420342e353961342e353220342e353220302030203120312e35383920312e363136632e3338342e3636352e35393420312e3431382e36303820322e31383776362e3033326c362e38352d342e303635762d362e303332632e3031332d2e3737352d2e3138352d312e3533382d2e3537322d322e32303861342e323520342e32352030203020302d312e3632352d312e3539354c34312e3435362032342e3539632d2e3636382d2e3338372d312e3432362d2e35392d322e3139372d2e3539732d312e3532392e3230342d322e3139372e35396c2d31342e38363420382e36353561342e323520342e32352030203020302d312e36323520312e353935632d2e3338372e36372d2e35383520312e3433342d2e35373220322e3230387631372e343431632d2e3031332e3737352e31383520312e3533382e35373220322e32303861342e323520342e323520302030203020312e36323520312e3539356c31342e38363420382e363535632e3636382e33383720312e3432362e353920322e3139372e353973312e3532392d2e32303420322e3139372d2e35396c31302e3038312d352e39303120362e38352d342e3036352031302e3038312d352e393031632e3636382d2e33383720312e3432362d2e353920322e3139372d2e353973312e3532392e32303420322e3139372e35396c372e38383420342e353961342e353220342e353220302030203120312e35383920312e363136632e3338342e3636352e35393420312e3431382e36303820322e31383776392e333131632e3031332e3737352d2e31383520312e3533382d2e35373220322e32303861342e323520342e32352030203020312d312e36323520312e3539356c2d372e38383420342e373231632d2e3636382e3338372d312e3432362e35392d322e3139372e3539732d312e3532392d2e3230342d322e3139372d2e35396c2d372e3838342d342e353961342e353220342e35322030203020312d312e3538392d312e363136632d2e3338352d2e3636352d2e3539342d312e3431382d2e3630382d322e313837762d362e3033326c2d362e383520342e30363576362e303332632d2e3031332e3737352e31383520312e3533382e35373220322e32303861342e323520342e323520302030203020312e36323520312e3539356c31342e38363420382e363535632e3636382e33383720312e3432362e353920322e3139372e353973312e3532392d2e32303420322e3139372d2e35396c31342e3836342d382e363535632e3635372d2e33393420312e3230342d2e393520312e3538392d312e363136732e3539342d312e3431382e3630392d322e3138375635352e353338632e3031332d2e3737352d2e3138352d312e3533382d2e3537322d322e32303861342e323520342e32352030203020302d312e3632352d312e3539356c2d31342e3939332d382e3738367a222066696c6c3d2223666666222f3e3c646566733e3c6c696e6561724772616469656e742069643d2242222078313d2230222079313d2230222078323d22323730222079323d2232373022206772616469656e74556e6974733d227573657253706163654f6e557365223e3c73746f702073746f702d636f6c6f723d2223636235656565222f3e3c73746f70206f66667365743d2231222073746f702d636f6c6f723d2223306364376534222073746f702d6f7061636974793d222e3939222f3e3c2f6c696e6561724772616469656e743e3c2f646566733e3c7465787420783d2233322e352220793d223233312220666f6e742d73697a653d223237222066696c6c3d2223666666222066696c7465723d2275726c282341292220666f6e742d66616d696c793d22506c7573204a616b617274612053616e732c44656a6156752053616e732c4e6f746f20436f6c6f7220456d6f6a692c4170706c6520436f6c6f7220456d6f6a692c73616e732d73657269662220666f6e742d7765696768743d22626f6c64223e",
  "linkReferences": {},
  "deployedLinkReferences": {}
}